{
  "contractName": "Todo",
  "abi": [
    {
      "constant": true,
      "inputs": [],
      "name": "itemCount",
      "outputs": [
        {
          "name": "",
          "type": "uint256"
        }
      ],
      "payable": false,
      "stateMutability": "view",
      "type": "function"
    },
    {
      "constant": true,
      "inputs": [
        {
          "name": "",
          "type": "uint256"
        }
      ],
      "name": "items",
      "outputs": [
        {
          "name": "id",
          "type": "uint256"
        },
        {
          "name": "description",
          "type": "string"
        },
        {
          "name": "done",
          "type": "bool"
        }
      ],
      "payable": false,
      "stateMutability": "view",
      "type": "function"
    },
    {
      "constant": false,
      "inputs": [
        {
          "name": "_description",
          "type": "string"
        }
      ],
      "name": "addItem",
      "outputs": [],
      "payable": false,
      "stateMutability": "nonpayable",
      "type": "function"
    },
    {
      "constant": false,
      "inputs": [
        {
          "name": "_id",
          "type": "uint256"
        },
        {
          "name": "_done",
          "type": "bool"
        }
      ],
      "name": "markAs",
      "outputs": [],
      "payable": false,
      "stateMutability": "nonpayable",
      "type": "function"
    },
    {
      "constant": false,
      "inputs": [
        {
          "name": "_id",
          "type": "uint256"
        }
      ],
      "name": "destroy",
      "outputs": [],
      "payable": false,
      "stateMutability": "nonpayable",
      "type": "function"
    }
  ],
  "bytecode": "0x608060405234801561001057600080fd5b5061051b806100206000396000f30060806040526004361061006d576000357c0100000000000000000000000000000000000000000000000000000000900463ffffffff16806327e9f294146100725780634144a821146100db5780636bfb0d01146101145780639d1187701461013f578063bfb231d21461016c575b600080fd5b34801561007e57600080fd5b506100d9600480360381019080803590602001908201803590602001908080601f0160208091040260200160405190810160405280939291908181526020018383808284378201915050505050509192919290505050610224565b005b3480156100e757600080fd5b50610112600480360381019080803590602001909291908035151590602001909291905050506102b8565b005b34801561012057600080fd5b506101296102e9565b6040518082815260200191505060405180910390f35b34801561014b57600080fd5b5061016a600480360381019080803590602001909291905050506102ef565b005b34801561017857600080fd5b5061019760048036038101908080359060200190929190505050610333565b604051808481526020018060200183151515158152602001828103825284818151815260200191508051906020019080838360005b838110156101e75780820151818401526020810190506101cc565b50505050905090810190601f1680156102145780820380516001836020036101000a031916815260200191505b5094505050505060405180910390f35b6001600081548092919060010191905055506060604051908101604052806001548152602001828152602001600015158152506000806001548152602001908152602001600020600082015181600001556020820151816001019080519060200190610291929190610402565b5060408201518160020160006101000a81548160ff02191690831515021790555090505050565b8060008084815260200190815260200160002060020160006101000a81548160ff0219169083151502179055505050565b60015481565b60008082815260200190815260200160002060008082016000905560018201600061031a9190610482565b6002820160006101000a81549060ff0219169055505050565b6000602052806000526040600020600091509050806000015490806001018054600181600116156101000203166002900480601f0160208091040260200160405190810160405280929190818152602001828054600181600116156101000203166002900480156103e55780601f106103ba576101008083540402835291602001916103e5565b820191906000526020600020905b8154815290600101906020018083116103c857829003601f168201915b5050505050908060020160009054906101000a900460ff16905083565b828054600181600116156101000203166002900490600052602060002090601f016020900481019282601f1061044357805160ff1916838001178555610471565b82800160010185558215610471579182015b82811115610470578251825591602001919060010190610455565b5b50905061047e91906104ca565b5090565b50805460018160011615610100020316600290046000825580601f106104a857506104c7565b601f0160209004906000526020600020908101906104c691906104ca565b5b50565b6104ec91905b808211156104e85760008160009055506001016104d0565b5090565b905600a165627a7a723058209673c6b1f7cde7cfc415e564fa022d7d7f5cb237a3e5c369905203a6b2c998d70029",
  "source": "pragma solidity ^0.4.24;\n\ncontract Todo {\n\n    struct Item {\n        uint id;\n        string description;\n        bool done;\n    }\n\n    mapping(uint => Item) public items;\n\n    uint public itemCount;\n\n    function addItem(string _description) public {\n        itemCount++;\n        items[itemCount] = Item(itemCount, _description, false);\n    }\n\n    function markAs(uint _id, bool _done) public {\n        items[_id].done = _done;\n    }\n    \n    function destroy(uint _id) public {\n        delete items[_id]; \n    }\n}\n",
  "sourcePath": "/usr/local/var/www/dtodo/contracts/Todo.sol",
  "compiler": {
    "name": "solc",
    "version": "0.4.24+commit.e67f0147.Emscripten.clang"
  },
  "schemaVersion": "2.0.1",
  "updatedAt": "2018-10-17T07:31:11.048Z"
}